:020000040001F9
:10C00000307300208DC4010095C4010097C4010065
:10C0100099C401009BC401009DC401000000000000
:10C020000000000000000000000000009FC40100AC
:10C03000A1C4010000000000A3C40100A5C40100C8
:10C04000A7C40100A7C40100C5CE0100A7C4010018
:10C05000A7C40100A7C4010061CA0100A7C4010070
:10C06000A7C40100A7C40100A7C40100A7C4010020
:10C07000A7C40100A7C40100A7C40100A7C4010010
:10C08000A7C401000DCC0100A7C40100A7C4010092
:10C0900031CC0100A7C4010035CC0100A7C40100C8
:10C0A000A7C40100A7C40100A7C40100A7C40100E0
:10C0B000A7C40100A7C401000000000000000000A8
:10C0C000A7C40100A7C40100A7C40100A7C40100C0
:10C0D000A7C40100A7C40100A7C40100000000001C
:10C0E0000000000000000000000000000000000050
:10C0F0000000000000000000000000000000000040
:10C10000000000000000000000000000000000002F
:10C11000000000000000000000000000000000001F
:10C40000DFF80CD000F08CFA00480047E5E80100A6
:10C4100030730020401E00BF00BF00BF00BF00BF40
:10C4200000BF00BF00BF00BF00BF00BF00BF00BF14
:10C4300000BF00BF00BF00BF00BF00BF00BF00BF04
:10C4400000BF00BF00BF00BF00BF00BF00BF00BFF4
:10C4500000BF00BF00BF00BF00BF00BF00BF00BFE4
:10C4600000BF00BF00BF00BF00BF00BF00BF00BFD4
:10C4700000BF00BF00BF00BF00BF00BF00BF00BFC4
:10C4800000BF00BF00BFC5D170470000064880470D
:10C4900006480047FEE7FEE7FEE7FEE7FEE7FEE7A9
:10C4A000FEE7FEE7FEE7FEE759CC010001C401000C
:10C4B00040EA01039B0703D009E008C9121F08C026
:10C4C000042AFAD203E011F8013B00F8013B521EA6
:10C4D000F9D27047D2B201E000F8012B491EFBD21D
:10C4E00070470022F6E710B513460A46044619467F
:10C4F000FFF7F0FF204610BD421C10F8011B002979
:10C50000FBD1801A704730B504460020034600E096
:10C510005B1C934203D2E05CCD5C401BF8D030BD85
:10C5200030B50B46014600202022012409E021FA03
:10C5300002F59D4205D303FA02F5491B04FA02F500
:10C540002844151EA2F10102F1DC30BD2DE9F05F97
:10C550000546002092469B46884606468146402472
:10C560001BE0284641464746224600F0FAF953466A
:10C570005A46C01A914110D311461846224600F07F
:10C58000E1F92D1A67EB01084F46224601200021F0
:10C5900000F0D8F917EB00094E41201EA4F1010468
:10C5A000DFDC484631462A464346BDE8F09F2DE988
:10C5B000FE4F804681EA0300C00F0C46009021F038
:10C5C000004123F00045B8EB0200A94105D24046E6
:10C5D000214690461C460B46024623F0004010437D
:10C5E00047D0270DC7F30A00C3F30A510290401A3F
:10C5F000019040286BDAC3F3130040F4801B0098CD
:10C60000924620B10023D2EB030A63EB0B0B019897
:10C610005946C0F14002504600F094F906460D46D6
:10C6200050465946019A00F0ACF910EB0800614100
:10C63000002487EA115284EAE7731A4340D0009A33
:10C6400062B3019A012A4FEA075215DC001B61EB25
:10C6500002014FF0004202EA0752CDE90042001CFD
:10C6600041F5801132462B4600F0ACF903B0BDE82D
:10C67000F08F40462146F9E7001B61EB0201001CE8
:10C6800041F5801300185B412018A2F5001747EB15
:10C69000030140EAD570B6196D4111E06D084FEA0B
:10C6A000360645EAC0754FEA0752001B61EB0201EE
:10C6B000001C41F5801149084FEA30000019514132
:10C6C00032462B4603B0BDE8F04F00F06CB900983D
:10C6D000012240000023D0EB020263EBE0730098DC
:10C6E00021464FEAE074B8EB000061EB0401E9E792
:10C6F00083F000435BE781F0004158E72DE9FE4FEE
:10C7000081EA030404F0004421F0004100944FF05A
:10C71000000B23F0004350EA01045ED052EA030408
:10C720005BD0C3F30A54C1F30A552C44A4F2F3348A
:10C730000194A0FB0254C1F3130141F48011C3F32F
:10C74000130343F4801301FB024400FB034E840AED
:10C75000970A44EA815447EA8357A4FB0768029585
:10C760008D0A05FB07854FEA932C04FB0C54270523
:10C77000029D4FEA065847EA1637B5EB08056EEBFF
:10C78000070C870E920E47EA811742EA8312A7FB35
:10C790000201B6EB0B0164EB00042B0D43EA0C33F2
:10C7A0005E1844EB1C50DA465146E7FB0201C5F324
:10C7B00013044FEA0B3343EA14534FEA0432019C4B
:10C7C00043EA0603A4F10C040294009CCDE900B4F2
:10C7D00000F0F8F803B0BDE8F08F00200146F9E75B
:10C7E0002DE9F04D81EA030404F0004B21F00045EF
:10C7F00014464FF0000A23F0004150EA050220D011
:10C8000054EA01021DD0C5F30A570246C5F31303CB
:10C81000C1F31300C1F30A5640F4801543F48013AA
:10C82000A7EB0608101BD64608F2FD3873EB05008F
:10C8300002D308F1010801E092185B41B8F1000F42
:10C8400003DA00200146BDE8F08D00204FF480118E
:10C85000064684460EE0171B73EB050705D3121B33
:10C8600063EB050306434CEA010C49084FEA30002C
:10C8700092185B4150EA0107EDD152EA030012D051
:10C8800082EA040083EA0501084305D0101BAB418E
:10C8900006D20122002306E000224FF0004302E00E
:10C8A0006FF0010253101AEB06004CEB085110EB2D
:10C8B0000A0041EB0B01BDE8F04D00F074B8C1F384
:10C8C0000A52C1F3130140F2FF3341F480119A423E
:10C8D00002DA00200146704740F233439A42A2F246
:10C8E000334202DC524200F03CB800F02BB80000AA
:10C8F00030B5041E71F1000404DB4FF000444042E7
:10C9000064EB0101141E73F1000405DB1C464FF0BB
:10C910000043524263EB0403994208BF904230BD8A
:10C92000064C074D06E0E06840F0010394E807007C
:10C9300098471034AC42F6D3FFF766FD28FE01009D
:10C9400048FE0100202A04DB203A00FA02F1002010
:10C9500070479140C2F1200320FA03F3194390403D
:10C960007047202A04DB203A21FA02F000217047A8
:10C9700021FA02F3D040C2F1200291400843194647
:10C980007047202A06DBCB17203A41FA02F043EA2F
:10C99000E07306E041FA02F3D040C2F12002914078
:10C9A00008431946704710B5141E73F1000408DAE5
:10C9B000401C41F1000192185B411A4301D120F063
:10C9C000010010BD2DE9F04D92469B4611B1B1FA20
:10C9D00081F202E0B0FA80F220329046FFF7B2FF17
:10C9E00004460F4640EA0A0041EA0B0153465A4604
:10C9F000084313D0114653EA010019D0C8F1400290
:10CA00005046FFF7AEFF05460E4650465946424691
:10CA1000FFF798FF084305D0012004E0204639467F
:10CA2000BDE8F08D0020054346EAE0762C4337430D
:10CA30000A986305E40AA0EB08000022FD0A44EA14
:10CA400047540A3002D500200146E9E701051019D4
:10CA50006941DDE9084500196941BDE8F04DA2E7EB
:10CA60002DE9FC5F0025DFF83491A8464FF480766D
:10CA700001242F46304602F0EDFA38B1D9F804030C
:10CA8000204203D0304602F0DBFA2543361D640015
:10CA90007F1CB6B2082FEDD34FF4BE74204602F0CF
:10CAA000D9FA38B1204602F0CBFA3D4845F00045AE
:10CAB000D0F800803B4E15F0FF0F14D00127002462
:10CAC0002F420CD009EB8401D1F81005D1F81015D4
:10CAD000C0F3042056F82420C1F3014190477F00A1
:10CAE000641C082CECD3002D56DA00200190401E67
:10CAF0004CE0701910F8501F90F9000021F0C004AC
:10CB0000401C38D0012000FA04FA1AEA090F32D08A
:10CB10004FEA911B204601F04DFB56F82000009093
:10CB200010B9BBF1030F26D15146BBF1030F02D15F
:10CB3000019808430190A00000F1A040D0F8000740
:10CB40001AEA080FC0F3014002D0022802D012E016
:10CB5000032810D1BBF1030F07D102281AD00221FC
:10CB6000204602F05EFA7F1CFFB2009818B1009ACE
:10CB70005946204690476D1C042DBAD3002F0BD088
:10CB800007480068404507D0804601980027814645
:10CB90003D46AEE70321E3E7BDE8FC9F00600040AF
:10CBA000100500508050002000F01F02012191402C
:10CBB0004009800000F1E020C0F88012704700F0CA
:10CBC0001F02012191404009800000F1E020C0F8DF
:10CBD0000011704700F01F020121914040098000C0
:10CBE00000F1E020C0F8001270474907090E002844
:10CBF00006DA00F00F0000F1E02080F8141D704705
:10CC000000F1E02080F80014704700000748002180
:10CC1000C0F84011C0F84411C0F84811C0F84C11D8
:10CC2000C0F80011C0F8041102F086BE00100140E7
:10CC300002F01EBE074810B5406830B1804700289A
:10CC400007D0BDE8104000F043BEBDE8104001F041
:10CC50008DBC10BD1C3E002070B58D480023021D08
:10CC60000178101D0124062907D115782D0704D15C
:10CC70000578C5F30315032D02D0062904D00FE073
:10CC8000854E844D75670EE015782D0708D105781F
:10CC9000C5F30315032D06D0042D04D0052D02D0B5
:10CCA000062909D010E04FF08055D5F844527B4E4C
:10CCB000C5F34235356002E015782D0704D10578BB
:10CCC000C5F30315032D02D0062906D011E0744DDB
:10CCD0002E6826F080762E600EE015782D0708D19C
:10CCE0000578C5F30315032D06D0042D04D0052DBA
:10CCF00002D006290AD011E04FF08045C5F80C316A
:10CD0000C5F81031654D2D1F2B6002E015782D07F9
:10CD100004D10578C5F30315032D02D0062905D0EB
:10CD20000CE05E4A0321643211600AE015782D0799
:10CD300004D10578C5F30315032D02D006290DD0C3
:10CD40006AE0584A05211160564978310C6055490E
:10CD500008310B603F21121D116002E011780907B4
:10CD60005AD10078C0F30310052855D14E48006809
:10CD70004E4908604C48001D0068091D08604A487B
:10CD800008300068091D086047480C300068091D1C
:10CD90000860454810300068091D0860424814309A
:10CDA0000068091D08604048183000683F4920317C
:10CDB00008603D481C300068091D08603A48203072
:10CDC0000068091D0860384824300068091D0860A3
:10CDD000354828300068091D086033482C30006849
:10CDE000091D086030483030006830494031086023
:10CDF0002D4834300068091D08602B483830006821
:10CE0000091D086028483C300068091D0860264854
:10CE100040300068091D086021487438016841F4F9
:10CE200070010160BFF34F8FBFF36F8F4FF0102180
:10CE3000D1F80002002803DBD1F80402002822DA2E
:10CE40001B4A14601B480468002CFCD01524C1F850
:10CE500000420568002DFCD0C1F804420168002999
:10CE6000FCD0136001680029FCD0BFF34F8F0C4841
:10CE7000F0380168104A01F4E06111430160BFF32A
:10CE80004F8F00BFFDE70E490C48086070BD0000E1
:10CE9000E00F00F00DF0ADBA00C007403C050040C7
:10CEA000FCED00E0105600400404001020C50040D6
:10CEB00004E5014000E401400400FA050090D003BD
:10CEC000303E00200348007F08B102F0A1BE02F00E
:10CED0001BBE0000D8500020014B024A00F0D6B81B
:10CEE00007E50100183E002002E008C8121F08C133
:10CEF000002AFAD170477047002001E001C1121FDB
:10CF0000002AFBD1704700002DE9FF5F82B00021AD
:10CF1000DDE90430020DDDF840B0034318D044F6DB
:10CF20001050A2F2FF3242431514119801281FD06D
:10CF3000A5EB0B00401C5FEA000A4FF000064E4FC5
:10CF4000DFF83891B046504615D5CAF1000413E019
:10CF5000119801244AA3012801D16FEA0B0102981C
:10CF6000119AC0E90031C0E9024206B0BDE8F09F65
:10CF7000CBF10000DFE704460021404A491842EBAC
:10CF80000450CDE9001012E0E00707D032463B46DE
:10CF900040464946FFF7B2FB8046894632463B464B
:10CFA00010461946FFF7AAFB06460F466410002CF0
:10CFB000EAD1DDE90401DDE90023BAF1000F06DA68
:10CFC000FFF79CFB42464B46FFF798FB05E0FFF757
:10CFD00007FC42464B46FFF703FC04460E46002280
:10CFE000284BFFF785FC03D84FF0FF30014607E0E0
:10CFF0000022254B20463146FFF7D9FAFFF75FFCA8
:10D00000102409E0002C0ADB0A220023FFF79EFA15
:10D01000039B30321A55641E50EA0102F2D1641C9F
:10D02000039AC4F111031444119A012A03D0012276
:10D0300008430DD10AE0084304D000204FF0110B43
:10D04000119072E7A3EB0B056D1E0DE05B4504DD4F
:10D050004FF0000205F1010504E003DA4FF0000291
:10D06000A5F10105002AECD002981199C0E902311E
:10D07000C0E9004579E70000000014400000F03FDF
:10D08000300000000000F0430000E03F2DE9FF4FBA
:10D0900095B09B468946064600250FE2252877D1A4
:10D0A00000242746F84A0121059400E0044316F8BD
:10D0B000013F203B01FA03F01042F7D130782A28D3
:10D0C00011D06FF02F033078A0F13002092A16D862
:10D0D000059A44F0020402EB820203EB4202104480
:10D0E000761C0590EFE759F8042B0592002A03DA25
:10D0F000504244F40054059044F00204761C307809
:10D100002E2816D116F8010F44F004042A280DD059
:10D110006FF02F023078A0F13003092B09D807EB0C
:10D12000870302EB4303C718761CF3E759F8047B27
:10D13000761C30786C280FD006DC4C2817D0682875
:10D140000DD06A2814D104E0742810D07A280FD1A9
:10D150000DE044F400140AE044F4801401E044F4C7
:10D1600040147278824202D104F58014761C761C39
:10D17000307866280BD013DC582877D009DC0028DB
:10D1800075D04528F6D04628F4D047281AD19DE11D
:10D1900018E0632835D0642879D0652812D195E14C
:10D1A000702873D008DC6728F1D069286FD06E280A
:10D1B0000DD06F2806D1B5E073282CD0752875D016
:10D1C000782874D05A46179990476D1C75E1C4F3BE
:10D1D0000250022809D003280DD0D9F800100428E5
:10D1E0000DD00D6009F1040967E1D9F80010EA17C4
:10D1F000C1E90052F6E7D9F800100D80F2E70D7092
:10D20000F0E719F8041B8DF8001000208DF80100DC
:10D21000EA46012003E059F804AB4FF0FF30610704
:10D220004FF0000102D40DE008F101018846B94237
:10D230000FDA8045F8DB1AF808100029F4D108E06D
:10D2400008F1010188468142FADB1AF8081000292A
:10D25000F6D105985B46A0EB080721463846179A99
:10D2600000F094FA284400EB080507E04DE029E1BE
:10D270000DE01AF8010B5A4617999047B8F10108CA
:10D28000F7D25B4621463846179A13E142E00A225C
:10D290000092C4F302524FF0000A022A08D059F853
:10D2A00004CB032A4FEAEC710AD00DE029E02AE012
:10D2B00009F1070121F00702F2E802C1914609E0F5
:10D2C0000FFA8CFC4FEAEC71042A03D14FFA8CFC64
:10D2D0004FEAEC71002907DA0A460021DCF1000C64
:10D2E00061EB02012D2202E0220504D52B228DF8EC
:10D2F0000420012203E0E20701D02022F7E7904654
:10D3000059E00A2102E010220DE010214FF0000A3E
:10D3100000910BE010224FF0000A44F004040827AB
:10D32000009203E008224FF0000A0092C4F3025278
:10D33000022A05D059F804CB0021032A08D009E0BD
:10D3400009F1070121F00702F2E802C1914605E068
:10D350001FFA8CFC042A01D10CF0FF0C4FF00008DE
:10D36000220728D5702806D0009B83F0100353EACB
:10D370000A0305D00EE040228DF80420012208E0C7
:10D380005CEA010206D030228DF804208DF80500F9
:10D3900002229046009B83F0080353EA0A030AD155
:10D3A0005CEA010201D1620705D530228DF8042024
:10D3B0004FF001087F1E582804D034A003900EA817
:10D3C00002900DE036A0F9E753466046009AFFF759
:10D3D000BDF884460398825C0298401E0290027059
:10D3E0005CEA0100F0D1029806A9081A00F1200AAF
:10D3F000600702D524F4803400E00127574502DDA0
:10D40000A7EB0A0000E0002000EB0A01009005985D
:10D410004144401A0590E00306D45B462146179A22
:10D42000059800F0B3F90544002706E001A85A4624
:10D43000C05D179990476D1C7F1C4745F6DBE003E4
:10D440000CD55B462146179A059800F09FF90544D4
:10D4500004E030205A46179990476D1C0099481EE9
:10D4600000900029F5DC08E0029802995A460078FD
:10D47000491C0291179990476D1CBAF10001AAF15D
:10D48000010AF1DC65E10000092801003031323386
:10D4900034353637383961626364656600000000F0
:10D4A00030313233343536373839414243444546DA
:10D4B0000000000000F058F90544761C3078002880
:10D4C0007FF4ECAD19B02846BDE8F08F620700D4B8
:10D4D000062709F1070222F0070CFCE80223E146C7
:10D4E00003F000485FEA080C02D00FF2702C0DE048
:10D4F0005FEA045C02D50FF2682C07E05FEAC47CA7
:10D5000002D00FF2602C01E0AFF2700C4FF0FF3848
:10D5100023F00043CDF850C065280CD006DC452828
:10D5200009D046281DD047283DD13DE0662818D0B7
:10D5300067287ED138E00021112F01DB112000E0A7
:10D54000781CCDE9000106A90EA8FFF7DDFCDDE996
:10D550000F010E9A03910021009207F1010A049134
:10D560004DE04FF000400097CDE9011006A90EA84C
:10D57000FFF7CAFCDDE90F0203920E9B119900220E
:10D58000DDF80CA00093049211B9791C00EB010A9C
:10D59000B7EB0A0004D4C0F1FF3007F1010A049090
:10D5A000AAEB0700019044E0012F00DA01270021D7
:10D5B000112F01DD112000E03846CDE9000106A958
:10D5C0000EA8FFF7A1FCDDE90F010E9A03910021DF
:10D5D00004910092BA4621070CD40399514500DA10
:10D5E0008A46BAF1010F05DD009AAAF10101515CEA
:10D5F000302908D0B84202DA10F1040F06DA01210E
:10D60000CDE9011015E0AAF10101E9E7002805DCE8
:10D61000049901440491AAEB000102E0411C514528
:10D6200000DD8A460499401A401C01904FF00040EA
:10D630000290200704D40198504501DBCDF8048006
:10D6400000208DF84F0002980DF14F07B0F1004F08
:10D6500025D02B200E9002984FF0020800280CDAFB
:10D66000404202902D200E9007E00A210298FEF71A
:10D6700057FF3031029007F8011DB8F10001A8F101
:10D680000108F2DC02980028EFD1791E0E9808708C
:10D69000307800F0200040F0450007F8020D12A895
:10D6A000C01B00F107081498007800B1012000EBBE
:10D6B0000A01019801EBE07105984144401A401EAF
:10D6C0000590E00306D45B462146179A059800F0C2
:10D6D0005DF805441498007818B15A461799904798
:10D6E0006D1CE00324D55B462146179A059800F08F
:10D6F0004DF805441CE00498002807DBDDE9030130
:10D70000884203DD0098405C179901E017993020AA
:10D710005A469047049805F10105401C0490019871
:10D72000401E019004D12E205A46179990476D1C37
:10D73000BAF10001AAF1010ADDDC05E017F8010BDE
:10D740005A46179990476D1CB8F10001A8F10108DD
:10D75000F4DC5B462146179A0598ABE62D000000E5
:10D760002B000000200000002DE9F04104460025B8
:10D770001E461746880404D405E039462020B047E9
:10D780006D1C641EF9D52846BDE8F0812DE9F041F5
:10D79000044600251E469046C80301D5302700E008
:10D7A0002027880404D505E041463846B0476D1C63
:10D7B000641EF9D52846BDE8F08170B500230D88B8
:10D7C0004C680DE0E618E15C7678864206D1E018F8
:10D7D000801C491E50601180002070BD0B445B1CF2
:10D7E0009D42EFD8052070BD70B50024084D05E0BE
:10D7F000686810F8340001F009F9641C2878844244
:10D80000F6D304480068BDE8704000F02FB900006E
:10D81000DC3D0020CCFD010070B50024064D06E083
:10D820006868012110F8340001F014F9641C2878AC
:10D830008442F5D3002070BDDC3D0020F8B51546CC
:10D840000C460646052A01D20720F8BD01F0E4F98E
:10D8500018B901F0B7F90028F7D1104900204E603F
:10D860000C70C1E902500E4D08610DE006EBC400DA
:10D870006968009181788DF801100078094A69463D
:10D8800001F03AF90028E0D1641EE4B2EED2BDE81E
:10D89000F840054A0021024800F04EB8DC3D002067
:10D8A000CCFD010015E5010069E30100BFF34F8FD6
:10D8B00005480168054A01F4E06111430160BFF3C6
:10D8C0004F8F00BFFDE700000CED00E00400FA05FB
:10D8D0000EB500210091CDE901106A4644F2010025
:10D8E000FFF7E4FF0EBD10B58268C368934203D012
:10D8F00000F0F6FD002010BD052010BD29B112B1C9
:10D90000531E134203D0092070470E207047016058
:10D91000838000218160C1600846704710B582682D
:10D92000C3689A1A83889A4203D800F0E3FD002066
:10D9300010BD042010BD0000074B9B6823B12AB125
:10D9400020B10068037C1BB1082070470720704796
:10D950004174426100207047F03D00202DE9F047FE
:10D960008046994614460F4690074FF0000634D182
:10D970001C4D8CB301F0F6FD0320C5F814902870FF
:10D9800004F11800002107EB4703AC6004EBC1026F
:10D99000491C167056709770506000EBC300032945
:10D9A000F4DBEE606E70AE701420FFF7FDF8062118
:10D9B0001420FFF71AF91420FFF701F90A49C1F8FA
:10D9C000008006211120FFF710F90748001F0068AA
:10D9D00028610020BDE8F08701E00720FAE7AE608B
:10D9E000FBE70000F03D0020081501402DE9F84359
:10D9F000DFF870900D461746D9F80810044651B369
:10DA00004CB3052D02D20720BDE8F883606910B33E
:10DA1000607C012821D0002602F066F9D9F80810B0
:10DA2000804601EBC800694602F07DF9B8B10121DA
:10DA300000F8041B0C4910C0096880E8E200D9F81E
:10DA4000081001EBC8009DF8001041701420FFF78A
:10DA5000C1F80020D8E70820D6E72E46DCE70420EE
:10DA6000D2E70000F03D002004150140F8B5124E49
:10DA70000446B168E1B1DCB16069C8B10027277420
:10DA800002F032F90546B068694600EBC50002F0C5
:10DA90004AF978B1022101704460B0689DF8001025
:10DAA00000EBC50041701420FFF794F83846F8BD2C
:10DAB0000820F8BD0420F8BDF03D002070B50446F4
:10DAC000234888B01E460D00426035D0A8882968DA
:10DAD00082B22048FFF712FF00282ED1A889A9683A
:10DAE00082B21C481030FFF709FF002825D1202200
:10DAF00019496846FEF7DCFCA0680690207900B161
:10DB000001208DF814008DF81C60607900B10E20A2
:10DB10008DF81500E0780290A078039020780190AD
:10DB2000607800900D49684601F080F8002804D123
:10DB30009DF81D0018B104E0072008B070BD01F089
:10DB400005F903480121401C01F0BAF8F5E700008F
:10DB5000D43D0020605000208CFD010061FA0100DE
:10DB600010B501460948FFF7D9FE04000CD101F0B9
:10DB70001BFA48B906490548FFF7B5FE20B901214F
:10DB8000034801F089F90446204610BD705000207A
:10DB9000D43D00202DE9F04104460078184F0126BD
:10DBA00006FA00F03860206801F031FA0021606860
:10DBB00001F024FA1348144D007FA069C5F824052C
:10DBC000607D217D0843C5F86C05D4E90001C5F8E6
:10DBD0000C05C5F81415207D01280FD10021A0687F
:10DBE00001F00CFA207B86403E60E06801F00FFAFD
:10DBF000D4E90201C5F80815C5F81005BDE8F081A3
:10DC000008050050D8500020002000400249887DBF
:10DC1000497D084001F0D2BD944D00202DE9F04728
:10DC2000044603883F4801228CB000F1150A102BEE
:10DC300009D0112B55D01A2B71D1217AB2EB111FBB
:10DC400054D2012353E0027D417D05468A43011DE4
:10DC500006A801F08EFD142206A901A8FEF728FCF3
:10DC6000DFF8C0900026374609F114090DF10408C9
:10DC70000AE000BF08EB46001D2283884946281DA4
:10DC8000009701F03BFD761C0198B042F2D8287D48
:10DC9000A688C043C0B201F053FDA0F57F41FF3913
:10DCA00017D005EB40000123868032465146281DDF
:10DCB00001F093FD012332464946281D01F08DFDF8
:10DCC000A07D02280BD000231649A2881631281DFA
:10DCD00020E00CB00420BDE8F047FFF7F9BD0123B8
:10DCE000F2E70023A2885146001D13E000230D49EE
:10DCF0000546A2881731001D01F06FFD207A022130
:10DD0000B1EB101F01D2012300E000230549A288D6
:10DD10001831281D0CB0BDE8F04701F05EBD0CB015
:10DD2000BDE8F087944D002070B540B10C4D2978C6
:10DD300039B1044601F0FAFB28B1002070BD0E2075
:10DD400070BD082070BDE868062807D20549226822
:10DD500001EB8001401C0A60E860EEE7042070BD22
:10DD6000BC3D0020C84D002040B1054900220123E0
:10DD7000CA600B70C1E90102104670470E2070475F
:10DD8000BC3D002000281FD000291DD00F4A12786A
:10DD9000002A19D00A88112A0ED0302A06D0322A39
:10DDA00007D0332A10D1091D01F0CEBA091D01F0A8
:10DDB0002FBB091D01F042BA8988B0F8AA2191420F
:10DDC00002D1002180F8A71170470000BC3D00205F
:10DDD00010B50B46040009D01148017841B1C16863
:10DDE00031B194F8A71129B1112010BD0E2010BD3A
:10DDF000082010BDA4F8AA310021816084F8A81180
:10DE0000084884F8A61122460068206001211846BF
:10DE100090DF0028EDD1012084F8A701002010BD7B
:10DE2000BC3D0020C84D002070B505468488FFF732
:10DE3000F5FE284601F056F9082C10D26B2008494F
:10DE4000604301EB80002946FFF79CFF0448294608
:10DE5000803800EB0410BDE8704000F065B870BD7C
:10DE60003440002070B518B30288A2F57F41FF3915
:10DE70001CD0104C4388104D206800EB8001401CE2
:10DE800000F00700206005EB810102204B81C88172
:10DE9000081D086100248C810120087208714C71F2
:10DEA0000A80887001F08AFD204670BD082070BD90
:10DEB0000E2070BDCC3D0020C04F002040B101803D
:10DEC00022B11168C0F802109188C180002070470B
:10DED0000E20704730B5134D040085B02DCD8DE870
:10DEE0002D001DD0E1B10868D0B100206080A08075
:10DEF000E0804FF6FF7020800868A06004F10C01FC
:10DF0000684663DF002809D1207B8DF8120041F2BA
:10DF10002350ADF8100004A8FFF706FF05B030BD90
:10DF20000E20FBE77CFD01000EB500281FD0002964
:10DF30001DD00A88112A23D0382A19D0392A16D19F
:10DF400002888B889A4212D18A8983889A420ED19C
:10DF50000A8A012A0BD102228DF800200288ADF82E
:10DF60000220897C8DF804108268694690470EBDB6
:10DF7000008889888842FAD1BDE80E4001F01EBDB4
:10DF8000028889888A42F2D14FF6FF710180002110
:10DF900041808180C1800EBD70B518B30288A2F5A2
:10DFA0007F43FF3B1CD0104C104D236803EB8302D2
:10DFB0005B1C03F00703236005EB8202C3885381D7
:10DFC0000123D381141D146100249481022414724E
:10DFD000117100881080937001F0F0FC002070BD7A
:10DFE000082070BD0E2070BDCC3D0020C04F002029
:10DFF0003EB50A78002A40D18A88A2F5A853233B6F
:10E000003BD18A79037B9A4237D101228DF80020D7
:10E010004A88ADF80220002218E000BF02EB42035C
:10E0200001EB830333F80E4F04F6DC24B4F50054FF
:10E0300005D0012C09D11B89ADF8083005E01C89F9
:10E04000ADF806405B89ADF80430521C0B7A934260
:10E05000E4D80188A1F57F42FF3A0BD0C18849B9C5
:10E06000818839B9418829B90199C0F80210BDF8F1
:10E070000810C1808268694690473EBD00B51648C9
:10E0800087B00023006805904822144905A801F0D4
:10E09000D5FB08B1FFF71CFC6A460021082001F0FF
:10E0A000B7FB08B1FFF714FC0220ADF800000C48E4
:10E0B00001F0D8FA08B1FFF70BFC684601F09EFBAF
:10E0C00008B1FFF705FC074801F08EFB002801D0DE
:10E0D000FFF7FEFB07B000BD50FD0100343E0020FD
:10E0E000183A002029DE01002DE9F0410D460D28E7
:10E0F00003D0BDE8F041FFF7EBBB0D4E002443F227
:10E10000020700BF06EB04102946FFF745FF18B1D0
:10E11000B84201D0082808D1641C082CF2D3294643
:10E12000BDE8F04103A000F0D3BBBDE8F0810000E2
:10E13000B43F00204C4253207772697465204C45EF
:10E14000442073746174652025640D0A000000008A
:10E1500005494FF0FF32082841F8202002D3084437
:10E1600080F848207047000080500020F0B54FF044
:10E17000FF3512B10023082601E008230C260C4CC1
:10E1800005E000BF54F823707F1C04D05B1CB34231
:10E19000F8D32846F0BD26185DB286F8305044F812
:10E1A0002310002AF5D1E11881F84800F1E70000BA
:10E1B000805000200249084490F930007047000068
:10E1C0008050002008B5024690F8A6010B46C0EB2F
:10E1D000C00000EB800002EB400092F8A52142B1A4
:10E1E000521ED2B202EB420100EB8102518A491C5D
:10E1F00000E0C188ADF800100089ADF80200694662
:10E20000184692DF08BD00002DE9F05F2648C1687E
:10E21000F1B3DFF898B00E688146DBF8004007697B
:10E22000C078E11B21F07F45ED1CB0B9DFF880809C
:10E230004FF48030C8F84403C8F804031120FEF7F7
:10E24000B3FC1120FEF7BBFC4FF0010AC8F800A098
:10E250002F20FEF7DFF889F803A0B54200D235463B
:10E26000124BE8193C3320F07F401860DBF80010B7
:10E270005A46091B21F07F41001B20F07F40C91C3A
:10E2800081420FD9106818602F20FEF7C3F800E014
:10E2900004E0BDE8F05F1120FEF79CBCBDE8F05F34
:10E2A00001F060B9BDE8F09FF03D00200415014089
:10E2B0000010014010B5418804460A46054800F0A8
:10E2C00007FB6088044901EB00102146BDE81040BF
:10E2D000FFF78EBEE0FD0100B43F00202DE9F843BA
:10E2E000054690F8A60195F8A541C0EBC00000EBEB
:10E2F000800005EB40060F4604EB4400914606EB18
:10E3000080013279601C0A31904226D16B4600228E
:10E31000284600F063F918B310E0401EA04201D176
:10E32000002004E004EB440006EB80001630804639
:10E3300002466B46284600F051F930B10020387093
:10E340006946484693DFBDE8F88395F8A501414644
:10E35000401C641C85F8A501E4B23079A042DCD8E9
:10E36000012038700020EEE72DE9F041002601255C
:10E37000144C22E06068226900EBC607387805FA81
:10E3800000F1114217D08A43226100F011FC0246CD
:10E390003878E36805FA00F1194002FA00F399426F
:10E3A00009D17978012901D0012100E000215140F3
:10E3B0007A6802B19047761CF6B220788642D9D3AB
:10E3C000BDE8F081DC3D00202DE9F047894690F85A
:10E3D000A6119046C1EBC10101EB810100EB4107A1
:10E3E000384601F0A3F8060039D01E4CA068062874
:10E3F00035D21D4D00EB800005EB00104622A0F841
:10E4000002803946001DFEF753F80027B9F1000FCE
:10E4100006D0A06800EB800005EB0010077006E056
:10E42000A168022001EB810105EB01110870A068D1
:10E4300000EB800105EB0111401CCE64A060E16897
:10E4400088420CD1002606E006EB860005EB0010A2
:10E45000C16C8847761CE0688642F5D3A760BDE8AA
:10E46000F0870000BC3D0020E04D002030B50D4697
:10E4700090F8A61193B0C1EBC10101EB81011446E4
:10E4800000EB410001F052F8030007D0ADF8024064
:10E4900001208DF8000068460195984713B030BD03
:10E4A0000E4910B54A788C780023A24212D0521C33
:10E4B000D2B24A70022A00D14B70084A4B78183207
:10E4C00052F8232002600869104420F07F40086160
:10E4D000012010BD0360002010BD0000F03D0020B1
:10E4E000826883881A4003689A5C0A708168491CB4
:10E4F00081607047C26883881A4003689954C16874
:10E50000491CC160704710B50446C0B2FFF728FB34
:10E51000204610BD2DE9F041124E07460125BD40B1
:10E520003068FFF7A3FA00280DD10F4C206928426C
:10E5300007D1384600F03CFB0028E06805D02843AE
:10E5400004E0A8432061BDE8F081A843E0602069B1
:10E5500028432061A1683068BDE8F0410022FFF740
:10E5600045BA0000CCFD0100DC3D0020F8B51A4C96
:10E57000207800282ED0206928B10026E06820B13C
:10E58000002526B110E00126F8E70125F9E76846E5
:10E5900052DF052803D020B1FFF79AF904E00126E5
:10E5A00002E021690098884785B96088ADF80000CD
:10E5B0006946A06861DF052803D020B1FFF788F91C
:10E5C00004E0012502E0D4E902018847002EDED0F4
:10E5D000002DD6D0F8BD00001C3E002009892AB1CC
:10E5E000D088491C814218D10020704790F8A6219C
:10E5F000C2EBC20202EB820200EB4202128991429C
:10E60000F2D0491C198090F8A611C1EBC10101EBB1
:10E61000810100EB4100008902E01980D088401E92
:10E62000588001207047000070B50C4605462078E0
:10E63000498801280FD002280CD1227910A000F0BF
:10E6400047F91E4A247900204FF40021131F9CB182
:10E650001160186070BD1AA000F03AF9FFF7DCF8FD
:10E6600008B1FFF735F92846FFF7FCFB0028F1D089
:10E67000BDE87040FFF72CB91960106070BD000054
:10E680005B4150505D3A204C696E6B2030782578A4
:10E690002C20427574746F6E2073746174652063EE
:10E6A00068616E676564206F6E20706565722074A6
:10E6B0006F20307825780D0A000000000C0500500E
:10E6C0005B4150505D3A204C454420427574746F54
:10E6D0006E207365727669636520646973636F7613
:10E6E00065726564206F6E20636F6E6E5F68616E29
:10E6F000646C6520307825780D0A00002DE9F0471C
:10E70000DFF8ACA0DAF80C009AF8004080469AF8DE
:10E710000460DAF80890DAF810703AE009EBC40502
:10E720002A7833E002EB42016B68521C03EBC10113
:10E73000AB78D2B2934200D100220B78022B02D0E8
:10E74000032B23D11FE0D1F804C00346014603E0A8
:10E75000614503D00B46C969C1B1F9E7B1B18B423C
:10E7600005D1C06918B9134F0126BE600027D1F842
:10E7700000C0C969D96149B10B6863440B6005E009
:10E780000174C06900E000210028F9D16978914244
:10E79000C8D1641EE4B2C1D2CAE903078AF8046092
:10E7A000404502D00120BDE8F0870020FBE70000D3
:10E7B000F03D0020001001402DE9F04705462F48AC
:10E7C000002680460778D0F80C904BE0D8F8080077
:10E7D00000EBC70440E002D02846ED691EE0207837
:10E7E000616800EB4002401CC0B201EBC201207026
:10E7F000A278904200D126700A784868012A2DD16B
:10E80000027C5ABB8A684260CA6882600A69C26038
:10E810004969816198F8041001B146604268D8F8EE
:10E820001030DFF85CC0D11A21F07F41614502D27F
:10E830008268114406E0991A826821F07F418A4279
:10E8400002D9511A016000E006604660012186602D
:10E850000174C66101F052F8002DBCD120786178B6
:10E860008842BCD17F1EFFB2B0D2D8F80C10494507
:10E8700002D00120BDE8F0870020FBE7F03D00203A
:10E88000FFFF7F0030B50E4C87B0207810B100201C
:10E8900007B030BD0B4A04AB012507CA83E8070067
:10E8A00007480623401CCDE900050748029068028E
:10E8B0000390064A694604A8FFF700F92570E7E7C8
:10E8C000103E0020D4FD0100185100204DFA010037
:10E8D0000FB410B503A90298FEF7FEFA10BC5DF85C
:10E8E00014FB000008B5FFF7CDFF08B1FEF7F0FFFD
:10E8F0002BA0FFF7EDFF00200122032102FA00F315
:10E9000013F4602F04D0830003F1A043C3F8001771
:10E91000401C2028F2D3294E4FF46020306000259F
:10E92000371D3D602B46264A03212846FFF716F87F
:10E9300008B1FEF7CDFF40F2666201212148FEF7E3
:10E940007DFF08B1FEF7C4FFFFF798FB1E48FFF7F5
:10E950000BFA08B1FEF7BCFF1A4C1C48241F0090AC
:10E96000DFF86C802570217808EB01106946FFF70D
:10E97000B1FA08B1FEF7ACFF2078401CC0B220709D
:10E980000828F0D3257000F03FFE4FF400303860C7
:10E99000356048DF0028FCD0FEF79AFFF9E7000059
:10E9A0005B4150505D3A204D756C74696C696E6BBB
:10E9B000204578616D706C650D0A000008050050F7
:10E9C0007C3E0020B43D0020B5E2010029E60100B4
:10E9D000B43F00204907090E002806DA00F00F02B4
:10E9E00002F1E02282F8141D03E000F1E02282F837
:10E9F000001400F01F02012191404009800000F145
:10EA0000E020C0F88012C0F80011704710B504462D
:10EA100000F074FD28B12046BDE81040002100F050
:10EA200000BB204600F076FD00280FD02046FFF7FF
:10EA3000C1FB074A02EB8001D1F8103523F0010336
:10EA4000C1F8103501218140C2F8081310BD000043
:10EA5000006000402DE9F0478846814600F04EFDF9
:10EA60000124224E0028484618D0FFF7A3FB30446B
:10EA700090F848008009032802D0012806D007E05A
:10EA80001B48006804FA09F4204201D1022100E089
:10EA900003214846BDE8F04700F0C3BA00F03AFD54
:10EAA000002820D04846FFF785FB0546114F4FF45C
:10EAB000807007EB850100EB8500D1F8102580B24E
:10EAC00042F00102C1F8102500F0BAFAB8F1000FC7
:10EAD00009D04846FFF76EFB56F82000002802D008
:10EAE000AC40C7F80443BDE8F08700008050002028
:10EAF00010050050006000402DE9FC41DFF8A480C3
:10EB0000044608EB0400002790F930001346C017B4
:10EB10000E46401C01D0082740E0F27819462046F6
:10EB2000FFF724FB0546401C37D0B07848B1A00061
:10EB300000F1A040D0F8001721F00201C0F8001742
:10EB400007E000217378204600910A46019100F009
:10EB500033FAF078C0B11448317800EB8500D0F872
:10EB60001025124B1A40C0F810254FF4F8524FF4FC
:10EB7000403302EA042203EA01410A43D0F81015A7
:10EB80000A43C0F8102509E008EB0500327810F8B8
:10EB9000481F41EA8211017000E004273846BDE8B1
:10EBA000FC8100008050002000600040FFE0FCFF7E
:10EBB00003490968C14011F0010000D001207047ED
:10EBC0001005005070B5124D95F8540008B108209A
:10EBD00070BD0020411E2A18401CC0B282F83010BF
:10EBE0002028F8D300242046FFF7B2FA641CE4B2D0
:10EBF0000C2CF8D306210846FFF7ECFE05494FF030
:10EC00000040C1F80403012085F85400002070BDC5
:10EC10008050002000600040034890F85400002815
:10EC200000D0012070470000805000202DE9F04105
:10EC30001E4C07460D46E07E10B10820BDE8F0816D
:10EC400007B91B4F787F20773846FEF7A3FF656032
:10EC5000386920602800174E4FF0000516D0397F24
:10EC6000207F48B1C6F81051C6F82051C6F824518B
:10EC7000C6F84451104804E0C6F81C51C6F8445187
:10EC80000E48C6F804030220FFF7A4FE207F08B157
:10EC9000082000E00420C6F80005E5752576A57576
:10ECA0000120E076A5760020C8E70000D8500020BB
:10ECB000ACFD0100002000401003020080000200B3
:10ECC0002DE9F0411F4B1C7F3CB14FF40052B2EBD9
:10ECD000104F02D01020BDE8F081D3F804C000220C
:10ECE000194D4FF404764FF40177BCF1000F05D0B5
:10ECF00014B1C5F8086301E0C5F8087393F817E08C
:10ED0000BEF1000F10D01A7E52B1BCF1000F05D039
:10ED100014B1C5F8046301E0C5F804731120DAE703
:10ED200018610122197604E0D9750025D8605D7656
:10ED30001D761CB1BDE8F04100F066B8BDE8F041B9
:10ED400000F014B8D85000200020004010B5064C48
:10ED5000207F002806D1A07E002803D100F048FCC7
:10ED60000120A07610BD0000D85000202DE9F05FF2
:10ED7000234DA87E104301D100F03AFC214C686875
:10ED800030B14FF40170C4F804030020BDE8F09FD7
:10ED90004FF000094FF4A27AC4F844914FF4927BEB
:10EDA000A8465946204600F05DF905464FF48471A7
:10EDB000204600F057F907465146204600F052F928
:10EDC000064647EA06012943EBD055EA060007D17B
:10EDD00000F0E6FB98F8171098F819008142E0D887
:10EDE00088F817900DB10320D0E70EB10F20CDE7C2
:10EDF00098F81A10012009B12060C6E76060C4E7E6
:10EE0000D8500020002000402DE9F05F204C002663
:10EE10004FF48873C4F810614FF4A275C4F84461CC
:10EE2000C4F83405C4F838158AB1D4F8000240F0AB
:10EE30002000C4F80002DFF85C80D8F8040048B174
:10EE40004FF40470C4F804030020BDE8F09F0120D3
:10EE50002060F0E79A46A9464FF4927B514620463F
:10EE600000F00BF905464946204600F006F9074632
:10EE70005946204600F001F93D430543EED088F89D
:10EE8000176008B10320E0E7002FDDD00F20DCE79A
:10EE900000200040D85000202DE9F047204D0246C8
:10EEA000287F38B14FF40050B0EB124F02D0102041
:10EEB000BDE8F08700F078F808B11120F8E7A975EF
:10EEC0000023AA60AB82287F28B3164C00264FF49B
:10EED00090709846C4F820314FF4AC73C4F8588150
:10EEE000C4F84425C4F848150121A160696881B9B6
:10EEF000824699465146204600F0BFF807464946EB
:10EF0000204600F0BAF80743F4D000B10F2685F888
:10EF100016803046CCE7BDE8F04700F005B80000A9
:10EF2000D8500020002000402DE9F05F1C4F002544
:10EF30004FF48E7A2E46C7F81C514FF00108C7F8DF
:10EF4000088000F05FFD174CB815616879B123E0C7
:10EF50005F465146484600F085F810B9A08AB8428D
:10EF6000F7D1A08AB84204D000F04CFD01E08346FE
:10EF7000B946A08AA17D8842EAD3A08A584501D12A
:10EF80000F2508E04F465146384600F06BF8002840
:10EF9000F9D0C7F80C80A6752846BDE8F09F0000A0
:10EFA00000200040D85000200248807D002800D07A
:10EFB00001207047D850002030B541EA4201DDE918
:10EFC000034541EA8301800041EA042100F1A040A9
:10EFD00041EA0541C0F8001730BD30B541EA4201B1
:10EFE000DDE9034541EA8301800041EA042100F1A3
:10EFF000A04041EA0541C0F8001730BD1CB5002211
:10F000000B46009211460192FFF7E7FF1CBD1CB5AD
:10F01000002100910B46012201911146FFF7DDFF0F
:10F020001CBD800000F5E06000F1A040026822F401
:10F0300040320260026842EA01410160704700000C
:10F04000034908B50844002101600068009008BD2C
:10F050000060004002494058012800D0002070475D
:10F06000006000404058002800D001207047D0F8D0
:10F070000403084000D0012070474058002800D009
:10F080000120704710B586B000F1110100F10804AD
:10F090000491007C01AAC008ADF80C0003A9092066
:10F0A000FEF78BFB30B101AA03A90820FEF785FB10
:10F0B000002812D10A48FDF71FFA00280DD0BDF82C
:10F0C000042007480299FDF71EFA002805D1044ADA
:10F0D0002046083A02F118018CDF06B010BD00008E
:10F0E0005CFD01002DE9F0470188041D1B2924D097
:10F0F00025DC354E4FF480284FF400374FF00005E3
:10F10000A6F10409102927D0112916D122792188C6
:10F110002EA0FFF7DDFBFEF767FB08B1FEF7D8FB7B
:10F1200000F072FA37604C46C9F80050FEF76EFDE9
:10F13000002802D1C4F800803560BDE8F0871D29A1
:10F140003DD01F29F9D12088211D75DF0028F4D07A
:10F15000BDE8F047FEF7BCBB218829A0FFF7B8FB4C
:10F160002088082802D30020FEF7B2FB218832480D
:10F17000002200EB0110FEF7A1FE08B1FEF7A8FB8C
:10F1800021882D4A6B204843803202EB8000FEF735
:10F190001FFE112802D008B1FEF79AFBC6F80080C6
:10F1A0004C46C9F80050FEF731FD082805D03760FD
:10F1B0002560BDE8F04700F027BA2760BCE7BDE84E
:10F1C000F047FFF75FBF00000C0500504C42532092
:10F1D00063656E7472616C206C696E6B203078258B
:10F1E0007820646973636F6E6E656374656420284C
:10F1F000726561736F6E3A202564290D0A00000064
:10F200005B4150505D3A206C696E6B2030782578F8
:10F210002065737461626C69736865642C20737413
:10F2200061727420646973636F76657279206F6EA2
:10F230002069740D0A000000B43F00202DE9F84F4A
:10F2400005460C460888B5F8AA11884254D195F8AD
:10F25000A601DFF8F0A0C0EBC00000EB800005EBDA
:10F26000400160884FF003094FF00008F0BB268989
:10F27000087904F10802F3B250FA86F6052E01D897
:10F28000034400E005230B71002315E000EB40066A
:10F2900003EB830702EB470701EB8606D7F802C0B2
:10F2A000C6F80AC0D7F806C0C6F80EC07F897782B4
:10F2B000401CA6F814805B1C0E798642E6D895F8AF
:10F2C000A62100EB4000C2EBC20202EB820201EB7E
:10F2D000800005EB4202C088128990420ED2F0B243
:10F2E00005280BD085F8A501218800E006E0284616
:10F2F000FEF768FF01000AD1BDE8F88F85F8A58107
:10F30000228869462846FEF7E9FF01000BD085F800
:10F31000A78122882846FFF7A9F88AF8009021885B
:10F32000AAF80210E8E79DF800000028E4D022883F
:10F3300001212846FFF748F82188284600F0A0F868
:10F34000DAE70000E04D0020F8B505460C460888D5
:10F35000B5F8AA1188424AD195F8A60104F108012E
:10F36000C0EBC00000EB800005EB400295F8A50162
:10F3700000EB400002EB800360880A33B0B9002044
:10F3800042F602170E880FE000EB400C01EB4C0C2C
:10F39000BCF804C0BC4506D100EB400001EB4000C6
:10F3A0004088588102E0401C8642EDD800268DF846
:10F3B000006095F8A5011179401C884203D1012015
:10F3C0008DF8000018E085F8A501228869462846D6
:10F3D000FEF784FF01000BD085F8A761228828463C
:10F3E000FFF744F809480321017021884180F8BDE6
:10F3F0009DF800000028FAD0228801212846FEF757
:10F40000E3FF2188284600F03BF8F8BDE04D0020DE
:10F4100070B5054690F8A6010C46C0EBC00000EBA5
:10F42000800005EB40012288B5F8AA01824224D170
:10F43000608848B100212846FEF7C6FF218828468B
:10F44000BDE8704000F01CB8D4F80A200A60D4F877
:10F450000E00C1F8060021882846FEF7B3FE010021
:10F460000BD0002085F8A70122882846FEF7FEFF72
:10F470000248032101702188418070BDE04D0020C9
:10F480002DE9F041044690F8A8010E46401C1949A8
:10F49000C0B284F8A801C9680327174D4FF0000EC9
:10F4A000884224D284F8A5E194F8A601401CC0B299
:10F4B000C0EBC00101EB810104EB410284F8A6011D
:10F4C000A5F1180101EB800001210068106082F8AD
:10F4D00004E0304690DF010007D084F8A7E132460F
:10F4E0002046FEF7C3FF2F706E80BDE8F08184F8E0
:10F4F000A7E1F8E7BC3D0020E04D002004490844A6
:10F5000090F93000082801DB012070470020704787
:10F51000805000200449084490F93000082801D2A6
:10F5200001207047002070478050002070B50C4BC0
:10F5300000210A4ADC680DE002EB81058678AD788F
:10F54000B54206D132F821500688B54201D158683B
:10F5500070BD491CA142EFD3002070BDC84D0020F2
:10F56000BC3D002070B5012670044FF0E02100255D
:10F57000C1F88001084C4010C4F84803C4F80803DF
:10F5800066602F20FCF746FFA660044C2F20256103
:10F59000FCF740FFE57070BD00100140F03D002019
:10F5A00009480A490022C37DC1F8082143B1D1F8B6
:10F5B0001815437EC268D154417E491C417670477C
:10F5C000D1F8180570470000D850002000200040F6
:10F5D0001FB501228DF8080004488DF80020019124
:10F5E000D0E90012684690471FBD0000D8500020A7
:10F5F00004480021C0F82411C0F80811012101605D
:10F60000704700000020004010B58BDF082802D0B2
:10F6100008B1FEF75DF9074907A0FFF759F905485A
:10F6200010308ADF002803D0BDE81040FEF750B943
:10F6300010BD00005CFD01005B4150505D3A20733D
:10F6400074617274207363616E6E696E6720666F99
:10F650007220646576696365206E616D652025732F
:10F660000D0A000008B502490020009108BD000005
:10F67000B03D002010B50121202803DA1D4A814049
:10F68000114004E0402803DAA0F12002914041B18A
:10F69000002809DA00F00F0101F1E02191F8141DB2
:10F6A00006E042F2010010BD00F1E02191F80014E3
:10F6B0004909082914D299B1012911D004290FD080
:10F6C00005290DD00C4A946800F01F0301219940D0
:10F6D000400944B152F820300B4342F8203007E093
:10F6E00042F2020010BD800000F1E020C0F80011DD
:10F6F000002010BDFC06FFBC2453002070B500287C
:10F70000049D18D0002916D0002A14D05FF0000400
:10F7100030F814609E420FD100200123A34008E07E
:10F7200001EB000426780DB11E4300E09E432670D5
:10F73000401C9042F4D370BD641C082CE8D370BD0B
:10F7400070B5054600242146284600F00AF808B1A5
:10F75000204670BD641CA4B2082CF4D34FF6FF7091
:10F7600070BD01228A40024201D001207047002072
:10F7700070472DE9F04186B080464FF000001746F3
:10F780000D00009012D000246E46A1B23846FFF75B
:10F79000E8FF40B1009935F8140006EB410188807C
:10F7A0000098401C0090641C082CEED3142269467B
:10F7B0004046FCF77DFE06B0BDE8F08170B500253F
:10F7C00006462C46A1B23046FFF7CBFF00B16D1CB8
:10F7D000641C082CF6D3284670BD08B50093134668
:10F7E0000122FFF78BFF08BD18B10349C860002054
:10F7F00070470E20704700001C3E00201CB50349D6
:10F8000001910091694660DF1CBD0000B03D002001
:10F8100070B50E460546144614211046FCF761FEED
:10F82000012020800021216121732672657205B1BB
:10F83000A072002070BDFEF739B8000030B409B1E5
:10F840008C0702D0072030BC7047074C0125A1600F
:10F8500062800649636010DF0028F4D1257030BC57
:10F860001620FFF707BF00001C3E002037F80100FC
:10F870002DE9F84F204C00256846D4E903B6FEF781
:10F880000FFE8046FEF73AFF0746A946B8F1000F83
:10F8900025D00023009ACC46E06819E007680146AD
:10F8A000974202D9BA1A026014E0C1F800C0D1F838
:10F8B0000C80D21BC8693B448A46B8F1000F07D0C0
:10F8C000F71827F07F47C1E90178CAF81C500D46A8
:10F8D0000028E3D1E0602846FEF76EFF04E02846EA
:10F8E000FEF76AFF00B917B15846FEF78DFC84F8A1
:10F8F0000490BDE8F88F0000F03D00200D4B10B5DE
:10F90000D96831B102680C68A24204D8A21A0A6010
:10F91000C161D86010BD0B4603E00B46C969121BDC
:10F9200021B10C689442F8D3A41A0C600260C16142
:10F93000D86110BDF03D00202DE9F0411D4DEC686F
:10F94000002C35D01C48002700682969B846401AA9
:10F9500020F07F462068B04215D82246361A074468
:10F96000E469107C68B182F810806B6933B1D2E928
:10F970000501984728B1FDF7ABFF02E0D2E9051079
:10F980008847002CE6D16978A878814206D1401CCE
:10F99000C0B2A870022801D185F802800548A97874
:10F9A000183040F82170BDE8F0411420FDF712B97D
:10F9B000BDE8F081F03D00200415014010B50F4C6A
:10F9C000D4E90010884211D000EB80020C4800EB13
:10F9D00082018B785BB130F82200083198DF002873
:10F9E00004D12079401C00F00700606010BD30F8A1
:10F9F00022008988002296DFF1E70000CC3D00203C
:10FA0000C04F0020064A0020C2F81C010548838A26
:10FA10008168C95C838A5B1C8382C2F81C157047AD
:10FA200000200040D85000201FB500218DF80800AC
:10FA300005488DF80010826801928175D0E90012A6
:10FA4000684690471FBD0000D85000200178022969
:10FA500001D0012902D14068FDF73ABF704700008C
:10FA60007CB50178264D012909D002292CD0002926
:10FA700029D129462348FDF736FF80B334E040689A
:10FA8000017820481038FDF749FF1E4C103C20B18A
:10FA900001218DF80010019007E0A068E168081AC4
:10FAA000012805D100208DF8000069686846884764
:10FAB000A068E168081AA188884204D8104801218A
:10FAC000401CFFF7FDF87CBD02218DF80010C068D6
:10FAD00001900B480121401CFFF7F2F80CE0FFE712
:10FAE00001210748FFF7D8F906488168C0688842B5
:10FAF000E9D103208DF800006968684688477CBD1D
:10FB0000D43D0020705000202DE9FF413E4D4FF4C0
:10FB100000712846FFF7ABFA01273C4C4FF40178FF
:10FB2000002600B34FF492712846FFF79BFAD0B13C
:10FB3000C5F82461C5F80883A07E00B96F60022073
:10FB40008DF80000D5F88004C5F880040390E07DAE
:10FB50008DF80800E0680190E6752676D4E9001279
:10FB60006846904724E004212846FFF780FAF8B160
:10FB70004FF484712846FFF775FAC8B1FFF710FDFE
:10FB8000E07D617E884213D1227E3AB1607EE168D9
:10FB9000E2752269E2602676667607E0A07E00B90B
:10FBA0006F60C5F80883E675607EE168FFF710FDB9
:10FBB0004FF48E712846FFF755FA58B1A18AA07DFF
:10FBC000814202D2FFF71EFF04E0C5F81C6108B1B4
:10FBD000FFF72AFF4FF4A2712846FFF743FA0028E7
:10FBE0000FD0C5F84461A07E00B12F60E07D0028F1
:10FBF00007D0E675607EE16804B0BDE8F041FFF72C
:10FC0000E7BCBDE8FF81000000200040D850002084
:10FC10007FB5334C4FF492712046FFF72EFA314DE9
:10FC20000026B0B1C4F8246102208DF80000D4F899
:10FC30008004C4F880040390D4F83C058DF80800D3
:10FC4000E8680190EE752E76D5E900126846904777
:10FC50001FE04FF488712046FFF70FFAC8B1C4F8CF
:10FC60001061D4F83C05E97DC0B2814211D12A7EF1
:10FC70005AB1E968D4F8003223F02003C4F8003206
:10FC8000EA752A69EA602E7601E0EE75E968FFF709
:10FC90009FFC4FF4A2712046FFF7EFF950B1C4F872
:10FCA0004461E87D30B1EE75D4F83C05E968C0B236
:10FCB000FFF78EFC4FF490712046FFF7DEF9002825
:10FCC0000CD0C4F82061A87D002807D0D4F84C05DA
:10FCD00004B0C0B2BDE87040FFF7A6BE7FBD000013
:10FCE00000200040D8500020EFF30580C005C00D73
:10FCF00013D0103840B2002806DA00F00F0000F1EF
:10FD0000E02090F8140D03E000F1E02090F80004EA
:10FD10004009022803D0062803D0022070470020A3
:10FD200070470120704742788378521CD2B29342C8
:10FD300000D100220378934201D1002070470A705D
:10FD40004168407800EB400001EBC00070470000C4
:10FD50000100000706001800000090014E6F726459
:10FD600069635F426C696E6B7900000000000000FF
:10FD700000000000A00050000000000023D1BCEAF9
:10FD80005F782315DEEF121200000000060000006D
:10FD9000080000000700000005000000000000004F
:10FDA000000000000000D601060000000600000070
:10FDB000080000000700000005000000000000002F
:10FDC000000000000000D60106000000F8500020EE
:10FDD00003000000080605070100000000E0D7014D
:10FDE0005B4150505D3A2063616C6C20746F2062FF
:10FDF0006C655F6C62735F6F6E5F64625F64697392
:10FE0000635F65767420666F7220696E7374616ECD
:10FE1000636520256420616E64206C696E6B203000
:10FE2000782578210D0A000048FE0100B03D002031
:10FE300084000000E8CE0100CCFE0100343E00202A
:10FE4000FC340000F8CE0100000000000D000300AB
:10FE5000E9E00100000000000000000000000000D8
:10FE60000000000000000000000000000000000092
:10FE70000000000000000000000000000000000082
:10FE80000000000000000000000000000000000072
:10FE90000000000000000000000000000000000062
:10FEA0000000000000000000000000000000000052
:10FEB0000000000000000000000000000000000042
:0CFEC00000000000000000000090D003D3
:040000050001C40131
:00000001FF
